:1000000000400020DD0C00001D0D00001F0D000051
:1000100000000000000000000000000000000000E0
:10002000000000000000000000000000210D0000A2
:100030000000000000000000230D0000250D00005E
:10004000270D0000270D0000270D0000270D0000E0
:10005000270D000000000000270D0000270D000004
:10006000270D0000270D0000270D0000270D0000C0
:10007000270D0000270D0000270D0000270D0000B0
:10008000270D0000270D0000270D0000270D0000A0
:10009000270D0000270D0000270D0000270D000090
:1000A000270D0000270D00000000000000000000E8
:1000B0000000000000000000000000000000000040
:1000C00010B5064C2378002B07D1054B002B02D02E
:1000D000044800E000BF0123237010BD3804002055
:1000E000000000002C120000044B10B5002B03D0C0
:1000F0000349044800E000BF10BDC04600000000F6
:100100003C0400202C120000164B002B00D1144B95
:100110009D46402292029A1A924600218B460F4633
:100120001348144A121A00F01DFF0F4B002B00D089
:1001300098470E4B002B00D0984700200021040068
:100140000D000D48002802D00C4800F0DDFF00F043
:10015000E7FE2000290000F013F800F0D1FEC046B1
:100160000000080000400020000000000000000027
:100170003804002078040020091100001911000043
:1001800090B585B002AF00F01FF800F005FBBA1C77
:10019000391DBB1D180000F01EFBBB1D00229B5E1D
:1001A0001A003B1D00215B5E1C00BB1C00215B5E36
:1001B000034904480093230000F057FCE7E7C046DA
:1001C000101200004D02000080B500AF194AA023B4
:1001D000DB000021D150A023DA05EC23DB00012154
:1001E000D150A023DB05144A002199501149A123C5
:1001F000DB0001225242CA500E49A223DB00012239
:100200005242CA500B4A0D4B1821D150094A0C4B8F
:100210001921D150074A0B4B0B49D150054AA02355
:10022000DB000421D150034B01221A60C046BD46B9
:1002300080BDC04600200040640700000C0500009F
:1002400014050000240500000050270080B582B08E
:1002500000AF0200FB1D1A700D4B01229A600C4981
:10026000FB1D1B780B4A8B50C046094A8E235B004E
:10027000D358002BF9D0064A8E235B000021D150C1
:10028000034B0122DA60C046BD4602B080BDC046C5
:10029000002000401C05000080B582B000AF7860EF
:1002A000144B01225A60134B0122DA60114A124B9F
:1002B0000021D1500F4AA123DB000221D1500D4A69
:1002C00080239B000121D1500A4AA0235B0000211A
:1002D000D150084AA223DB000021D1500549A823B0
:1002E000DB007A68CA50034B01221A60C046BD4643
:1002F00002B080BD009000400405000080B500AF52
:10030000034B1800FFF7C8FFC046BD4680BDC0467E
:1003100000127A0080B500AF034AA0235B00D358D7
:10032000DBB21800BD4680BD0090004080B582B0B1
:1003300000AF2A4AA023DB000021D150A023DA0518
:10034000E023DB000121D150A023DA05EF23DB00FD
:100350000121D150A023DA05A123DB002049D1508F
:10036000204B1800FFF798FFFB1D00221A7027E0B2
:10037000C0461D4AA0235B00D358002BF9D0A02310
:10038000DB051A4A01219950174AA0235B0000217E
:10039000D150C046144AA0235B00D358002BF9D09B
:1003A000A023DA05A123DB000121D1500E4AA023AE
:1003B0005B000021D150FB1D1A78FB1D01321A7021
:1003C000FB1D1B78082BD3D9074B01225A6000F084
:1003D0001FF9C046BD4602B080BDC0460030004097
:1003E0000100004000710200009000400C05000078
:1003F00090B585B000AF0400080011003B60FB1D04
:10040000221C1A70BB1D021C1A707B1D0A1C1A705C
:100410004649FB1D1A78B123DB00CA50434B012229
:100420009A60424A8E235B000021D1503F49BB1D98
:100430001B783F4A8B50FFF761FF05E0FFF76AFF2B
:10044000031E01D000236DE0384A8E235B00D35891
:10045000002BF3D00F23FB1800221A7006E0C046D1
:100460000F217B181A787B1801321A700F23FB18A2
:100470001B78092BF3D92D4A84235B000021D1502E
:100480002A4B01221A600E23FB1800221A7023E067
:10049000FFF734FF05E0FFF73DFF031E01D0002307
:1004A00040E0224A84235B00D358002BF3D01F4A3C
:1004B00084235B000021D1501C4AA323DB00D158C8
:1004C0000E203B181B783A68D318CAB21A703B1832
:1004D0001A783B1801321A700E23FB181A787B1D0C
:1004E0001B78013B9A42D3DB104B01225A61FFF784
:1004F00005FF05E0FFF70EFF031E01D0002311E00A
:100500000A4A84235B00D358002BF3D0074AA32365
:10051000DB00D1587B1D1B78013B3A68D318CAB267
:100520001A7001231800BD4605B090BD0030004090
:100530001C05000090B585B000AF04000800110054
:100540003B60FB1D221C1A70BB1D021C1A707B1D18
:100550000A1C1A702C49FB1D1A78B123DB00CA5003
:10056000294B01229A60284A8E235B000021D1503A
:100570002549BB1D1B78254A8B50FFF7BFFE05E0C0
:10058000FFF7C8FE031E01D0002339E01E4A8E2368
:100590005B00D358002BF3D00F23FB1800221A70F6
:1005A00023E0194A8E235B000021D1500F23FB1852
:1005B0001B783A68D3181B78134A1900134BD15093
:1005C000FFF79CFE05E0FFF7A5FE031E01D0002308
:1005D00016E00D4A8E235B00D358002BF3D00F2179
:1005E0007B181A787B1801321A700F23FA187B1DBA
:1005F00012781B789A42D4D3034B01225A6101230B
:100600001800BD4605B090BD003000401C0500003C
:1006100080B500AF1B4AA023DB000021D150A023EE
:10062000DA05E023DB00C021C900D150A023DA05A0
:10063000EF23DB00C021C900D150124A84235B00A4
:100640000021D1500F4A8E235B000021D1500D4A6A
:1006500092235B000021D1500A4AA123DB00002134
:10066000D150084A084B1E21D1500649074ACC23D5
:100670005B048B50034AA023DB000521D150C04608
:10068000BD4680BD003000400C0500002405000080
:10069000F0B585B000AF0400080011003B60FB1D01
:1006A000221C1A70BB1D021C1A707B1D0A1C1A70BA
:1006B0000F26BC193D687B1D1A78BB1D1978FB1DE0
:1006C00018782B00FFF794FE03002370BB191B78EA
:1006D000002B02D1FFF72AFEEAE7C046C046BD461E
:1006E00005B0F0BDF0B585B000AF04000800110002
:1006F0003B60FB1D221C1A70BB1D021C1A707B1D67
:100700000A1C1A700F26BC193D687B1D1A78BB1D88
:100710001978FB1D18782B00FFF70CFF03002370DE
:10072000BB191B78002B02D1FFF700FEEAE7C04699
:10073000C046BD4605B0F0BD80B582B000AF020036
:10074000FB1D1A70BB1D0A1C1A70BA1DFB1D1978FF
:10075000130001221920FFF7C5FFC046BD4602B0B5
:1007600080BD000080B584B000AF78607B68FB601E
:10077000FB681B881A0080231B01134006D0FB680E
:100780001B88044A13439AB2FB681A80C046BD46D0
:1007900004B080BD00F0FFFF80B500AFFFF738FF69
:1007A00057212020FFF7C8FF00212120FFF7C4FFB9
:1007B00000212220FFF7C0FF08212320FFF7BCFF04
:1007C00000212420FFF7B8FF00212520FFF7B4FF08
:1007D000C046BD4680BD90B587B000AFF860B96037
:1007E0007A6010243B190622A8211920FFF750FF38
:1007F00021007B185B781B027A18127813431B11B7
:100800001AB2FB681A807B18DB781B027A18927880
:1008100013431B111AB2BB681A807B185B791B0249
:100820007A18127913431B111AB27B681A80FB687D
:100830001800FFF797FFBB681800FFF793FF7B686E
:100840001800FFF78FFFC046BD4607B090BD80B5CA
:1008500084B000AF78600F23FB1800221A7014E0F8
:100860000F203A183B181B78191C8900CB18DB188D
:1008700013707B681A783B181B78D318DAB23B18D0
:10088000303A1A707B6801337B607B681B78642B7D
:1008900003D07B681B78782BE2D10F23FB181B78E1
:1008A0001800BD4604B080BD80B584B000AF020022
:1008B0003960FB1D1A703B68002B01D101232AE02F
:1008C0000F217B1800221A703B68002B02DA7B187C
:1008D00001221A700E217B180A221A70FB1D1B7848
:1008E000782B12D17B1810221A700EE00F217B1882
:1008F0001A787B1801321A700E23FB181B78190026
:10090000386800F011FA03003B603B68002BEDD122
:100910000F23FB181B781800BD4604B080BD90B5AE
:1009200089B000AFF8607A600B23FB180A1C1A70BC
:100930007B68002B03D1FB683020984792E01F2191
:100940007B180A221A700B23FB181B78782B02D114
:100950007B1810221A701E23FB1800221A70002325
:10096000BB6117217B1800221A707B68002B26DAE6
:100970007B1801221A707B685B427B601FE01F249A
:100980003B191A78BB695343BB613B191A787B68E2
:100990001100180000F0AEFA0B001A00BB699B189A
:1009A000BB613B191B781900786800F0BDF90300A2
:1009B0007B601E217B181A787B1801321A707B68C5
:1009C000002BDCD11723FB181B78002B38D0FB68D9
:1009D0002D20984734E01F23FB181A78BB691100BB
:1009E000180000F087FA0B001A0015217B181A7006
:1009F0000A00BB181B78092B06D81623FB18BA1857
:100A0000127830321A7006E01623FB181522BA1835
:100A1000127857321A701623FB181A78FB681000E8
:100A200098471F23FB181B781900B86900F07CF960
:100A30000300BB611E217B181A787B18013A1A70DB
:100A4000BB69002BC7D108E0FB68302098471E2106
:100A50007B181A787B18013A1A701E23FB181B7832
:100A6000002BF1D1BD4609B090BD0EB490B588B051
:100A700000AF78603023FB18FB60FB6AFB614CE041
:100A8000FB691B78252B05D0FB691A787B68100061
:100A900098473FE0FB681A1DFA601B687B61FB69A1
:100AA0000133FB611323FC18FB691800FFF7CFFE2D
:100AB0000300237002E0FB690133FB61FB691B78D3
:100AC000642B03D0FB691B78782BF4D1FB691B786E
:100AD0001B22BC187A6911001800FFF7E5FE03001D
:100AE000237008E07B68202098471B217B181A7828
:100AF0007B1801321A701B23FA181323FB18127883
:100B00001B789A42EED3FB6919787A697B681800E2
:100B1000FFF705FFFB690133FB61FB691B78002BC5
:100B2000AED1C046C046BD4608B090BC08BC03B0BC
:100B30001847000080B500AF00F036F8031E06D05D
:100B4000134B144A1A60144B802212021A6000F0F0
:100B50006BF8031E05D08023DA05C123DB000121D9
:100B6000D15000F087F8031E0ED00C4B1B68012BF0
:100B700007D00A4B0A4A1A60C046084B1B68012B73
:100B8000FBD1084BC0221A60C046BD4680BDC0469E
:100B900004050040DFFF07C0186C004000EC064071
:100BA0007593000014EC064080B500AF1A4B1B682B
:100BB000FF221340012B2AD1184B1B680F22134030
:100BC00025D1174B1B68F022134006D1154B1B682B
:100BD000F022134001D101231AE0114B1B68F022CF
:100BE0001340102B06D10F4B1B68F022134001D18C
:100BF00001230DE00A4B1B68F0221340302B06D175
:100C0000084B1B68F022134001D1012300E00023B0
:100C10001800BD4680BDC046E00F00F0E40F00F0B4
:100C2000E80F00F0EC0F00F080B500AF0D4B1B6833
:100C3000FF221340012B11D10B4B1B680F221340D5
:100C40000CD10A4B1B68F0221340402B06D1084BF5
:100C50001B68F022134001D1012300E0002318009B
:100C6000BD4680BDE00F00F0E40F00F0E80F00F09B
:100C7000EC0F00F080B500AF144B1B68FF2213404F
:100C8000012B1ED1124B1B680F22134019D1114B9F
:100C90001B68F0221340A02B06D10F4B1B68F022DB
:100CA000134001D101230DE00A4B1B68F0221340D1
:100CB000D02B06D1084B1B68F022134001D1012331
:100CC00000E000231800BD4680BDC046E00F00F0E4
:100CD000E40F00F0E80F00F0EC0F00F003210A48E9
:100CE00002680A430260094802680A430260084930
:100CF000084A094B9B1A03DD043BC858D050FBDC63
:100D0000FFF718FFFFF700FA2405004054050040E4
:100D1000381200000000002038040020FEE7FEE743
:100D2000FEE7FEE7FEE7FEE703460B437FD4002223
:100D300043088B4274D303098B425FD3030A8B426F
:100D400044D3030B8B4228D3030C8B420DD3FF22D9
:100D5000090212BA030C8B4202D31212090265D0A7
:100D6000030B8B4219D300E0090AC30B8B4201D35A
:100D7000CB03C01A5241830B8B4201D38B03C01AA1
:100D80005241430B8B4201D34B03C01A5241030B18
:100D90008B4201D30B03C01A5241C30A8B4201D3C9
:100DA000CB02C01A5241830A8B4201D38B02C01A74
:100DB0005241430A8B4201D34B02C01A5241030AEB
:100DC0008B4201D30B02C01A5241CDD2C3098B42D0
:100DD00001D3CB01C01A524183098B4201D38B014D
:100DE000C01A524143098B4201D34B01C01A5241F0
:100DF00003098B4201D30B01C01A5241C3088B4235
:100E000001D3CB00C01A524183088B4201D38B001F
:100E1000C01A524143088B4201D34B00C01A5241C1
:100E2000411A00D201465241104670475DE0CA0F98
:100E300000D04942031000D34042534000229C4658
:100E400003098B422DD3030A8B4212D3FC22890162
:100E500012BA030A8B420CD3890192118B4208D338
:100E6000890192118B4204D389013AD0921100E09A
:100E70008909C3098B4201D3CB01C01A52418309AE
:100E80008B4201D38B01C01A524143098B4201D3DB
:100E90004B01C01A524103098B4201D30B01C01A06
:100EA0005241C3088B4201D3CB00C01A5241830880
:100EB0008B4201D38B00C01A5241D9D243088B42D6
:100EC00001D34B00C01A5241411A00D20146634679
:100ED00052415B10104601D34042002B00D54942DD
:100EE000704763465B1000D3404201B5002000F01C
:100EF00005F802BD0029F8D016E770477047C046D4
:100F000010B50021040000F08DF8044B1868C36B85
:100F1000002B00D09847200000F06CF92812000048
:100F200070B50C4D0C4E761BB61005D0002408CDC4
:100F300001349847A642FAD100F05EF9074D084EF9
:100F4000761BB61005D0002408CD01349847A64280
:100F5000FAD170BD2C0400202C0400202C040020A9
:100F600034040020F0B5050083074AD0541E002A3F
:100F700044D003000322CEB202E00135013C3DD350
:100F800001332E701342F8D1032C2FD9FF220A40CF
:100F9000150215432A0415430F2C35D92700103F9D
:100FA0003F093E01B4461E001A0010366644156023
:100FB00055609560D5601032B242F8D10F260C22F0
:100FC00001373F012640DB193700224217D03E1F70
:100FD000B608B400A4461A001C1D644420C2A242F4
:100FE000FCD103240136B6009B193C40002C05D0EF
:100FF000C9B21C19197001339C42FBD1F0BD3400F9
:10100000F4E714000300BFE72700E0E7034B10B547
:10101000002B02D0024800F077F810BD000000005D
:1010200019110000F0B5DE464E4657464546E0B57C
:10103000334B83B01B680190180000930F0000F041
:101040007FF8304B1B681A000093A4235B00D6582E
:10105000012299469346002E30D07468651E2DD427
:10106000C4235B009A460134A4003419B24402E060
:10107000043C013D22D3002F04D080235B00E358C1
:10108000BB42F5D173682268013BAB4232D00023EA
:101090002360002AECD07368514698465B46AB400B
:1010A0000968194215D19047736843451ED14A46D5
:1010B000009B9B58B342DBD01E1ECED1104B18684C
:1010C00000F040F803B03CBC90469946A246AB46BF
:1010D000F0BD31008D31FF31096819420CD18023F8
:1010E0000198E158904773684345E0D04A46009B19
:1010F0009E58B0E77560CCE78023E0589047D3E76F
:10110000280400202812000010B50100002300224E
:10111000002000F019F810BD70B5074D074C641B96
:10112000A41005D0013CA300EB589847002CF9D13E
:1011300000F068F870BDC046340400203804002078
:101140007047C0467047C046F0B5D6464F46464643
:10115000C0B5264F82B00600386892469846894648
:10116000FFF7EEFF224B1B680193A423019A5B005B
:10117000D558002D2ED06C681F2C30DC002E0FD1DE
:10118000631C6B604B460234A40038686351FFF760
:10119000D9FF002002B01CBC90469946A246F0BD83
:1011A000882251462800A300EB189950873AA240A4
:1011B0008930FF30016811430160842140464900B5
:1011C0005850022EDCD12B008D33FF3319680A43AF
:1011D0001A60D5E715004D35FF35D550CBE7386897
:1011E000FFF7B0FF01204042D4E7C04628040020AA
:1011F00028120000FEE7C046F8B5C046F8BC08BC9F
:101200009E467047F8B5C046F8BC08BC9E4670477D
:10121000583A2025366420593A20253664205A3A17
:10122000202536640A0D00000000002000000000A8
:08123000D8EEFF7F0100000071
:1012380000000000EC02002054030020BC03002042
:101248000000000000000000000000000000000096
:101258000000000000000000000000000000000086
:101268000000000000000000000000000000000076
:101278000000000000000000000000000000000066
:101288000000000000000000000000000000000056
:101298000000000000000000000000000000000046
:1012A8000000000000000000000000000000000036
:1012B8000000000000000000000000000000000026
:1012C8000000000000000000000000000000000016
:1012D8000000000000000000010000000000000005
:1012E8000E33CDAB34126DE6ECDE05000B000000CA
:1012F80000000000000000000000000000000000E6
:1013080000000000000000000000000000000000D5
:1013180000000000000000000000000000000000C5
:1013280000000000000000000000000000000000B5
:101658000000000000000000540400200D100000ED
:08166800E9000000C1000000D0
:0400000300000CDD10
:00000001FF
